:0700000002003012005D3226
:04000B00120061324C
:04001B001200AE32EF
:0F00300075891175885075A889758AF9758C09BD
:0F003F00758BF9758D037580FF75900075A0FFA7
:0F004E0075B0FF780079007A001200D3020167C5
:10005D008586B022E5B0540C600AC290D291E5A01D
:0F006D00540160F020A40620A51220A61EE580F5
:0F007C0054096027E5A0540160FA0200A7E5804F
:0F008B0054126018E5A0540160FA0200A7E58046
:10009A0054246009E5A0540160FA0200A7758AF9A0
:1000AA00758C0922E580540960047801C294E580C0
:1000BA00541260047901C295E580542460047A01DF
:0F00CA00C296758BF9758D132230A51430A611CF
:0E00D90030A70EE580F460FB1201501200F912
:0F00E7001200EB22C291D29030A0F9D297C297AB
:1000F600C29022D29330A4FBC2932211EB1201507C
:10010600B80069BA005BBF0058020172C292D2936E
:1001160030A4F9C29312017C80E120840320A60E4C
:10012600C293D29230A5E5C29212018280CDC292CC
:10013600D29330A5D7C29312018280BFC293D292C6
:0F01460030A6C9C29212018880B120A10DE5A890
:0F0155004402F5A8C290D29130A1F0E5A854FD64
:10016400F5A8227F01E970B4E870A30201727F0050
:0E017400E970A9EA70C880EB75B0F9D2942248
:0C01820075B0A4D2952275B0B0D29622C0
:00000001FF
