:070000000201001201283289
:04000B0012012C3280
:04001B001201793223
:0F01000075891175885075A889758AF9758C09EC
:0F010F00758BF9758D032275900075B0FF780020
:10011E0079007A001201980202298586B022E5B094
:0E012E00540C600AC290D291E5A0540160F01A
:0F013C0020A40620A51220A61EE58054096027E6
:0F014B00E5A0540160FA020172E58054126018B9
:0F015A00E5A0540160FA020172E58054246009A7
:10016900E5A0540160FA020172758AF9758C0922B9
:10017900E580540960027801E58054126002790132
:0F018900E580542460027A01758BF9758D13227D
:0F01980020A51520A61220A70FE580543F60FA7E
:0E01A7001202121201BB1201B122C291D290BB
:1001B50030A0F9C29022D29330A4FBC2932231B170
:0F01C500120212B80069BA005BBF005802023480
:0E01D400C292D29330A4F9C29312023E80E18F
:0F01E20020840320A60EC293D29230A5E5C292CC
:0E01F10012024280CDC292D29330A5D7C293A3
:0E01FF0012024280BFC293D29230A6C9C292B1
:10020D0012024680B120A10DE5A84402F5A8C290C6
:0F021D00D29130A1F0E5A854FDF5A8227F01E9A8
:10022C0070B4E870A30202347F00E970A9EA70C8C8
:0E023C0080EB75B0F92275B0A42275B0B02227
:00000001FF
