:07000000020100120127328A
:04000B0012012B3281
:04001B001201783224
:0F01000075891175885075A889758AF9758C09EC
:10010F00758BF9758D0375900075B0FF78007900C8
:10011F007A001201970202288586B022E5B0540CAE
:0F012F00600AC290D291E5A0540160F020A406AE
:10013E0020A51220A61EE58054096027E5A05401D3
:0F014E0060FA020171E58054126018E5A05401B7
:0F015D0060FA020171E58054246009E5A05401A5
:10016C0060FA020171758AF9758C0922E5805409CF
:10017C0060027801E580541260027901E580542414
:0E018C0060027A01758BF9758D132220A5157E
:0F019A0020A61220A70FE580543F60FA12021131
:1001A9001201BA1201B022C291D29030A0F9C290C4
:0E01B90022D29330A4FBC2932231B012021165
:1001C700B80069BA005BBF0058020233C292D293EB
:1001D70030A4F9C29312023D80E120840320A60EC9
:1001E700C293D29230A5E5C29212024180CDC2924B
:1001F700D29330A5D7C29312024180BFC293D29245
:0F02070030A6C9C29212024580B120A10DE5A810
:0F0216004402F5A8C290D29130A1F0E5A854FDA2
:10022500F5A8227F01E970B4E870A30202337F00CC
:10023500E970A9EA70C880EB75B0F92275B0A422FF
:0402450075B0B022BE
:00000001FF
